{
  "_format": "hh-sol-artifact-1",
  "contractName": "TokenTransfer",
  "sourceName": "contracts/TokenTransfer.sol",
  "abi": [
    {
      "anonymous": false,
      "inputs": [
        {
          "indexed": true,
          "internalType": "address",
          "name": "from",
          "type": "address"
        },
        {
          "indexed": true,
          "internalType": "address",
          "name": "to",
          "type": "address"
        },
        {
          "indexed": false,
          "internalType": "uint256",
          "name": "amount",
          "type": "uint256"
        }
      ],
      "name": "TransferExecuted",
      "type": "event"
    },
    {
      "inputs": [
        {
          "internalType": "address",
          "name": "token",
          "type": "address"
        },
        {
          "internalType": "address",
          "name": "to",
          "type": "address"
        },
        {
          "internalType": "uint256",
          "name": "amount",
          "type": "uint256"
        }
      ],
      "name": "transferToken",
      "outputs": [],
      "stateMutability": "nonpayable",
      "type": "function"
    }
  ],
  "bytecode": "0x608060405234801561001057600080fd5b506104ca806100206000396000f3fe608060405234801561001057600080fd5b506004361061002b5760003560e01c8063f5537ede14610030575b600080fd5b61004a60048036038101906100459190610283565b61004c565b005b600073ffffffffffffffffffffffffffffffffffffffff168273ffffffffffffffffffffffffffffffffffffffff16036100bb576040517f08c379a00000000000000000000000000000000000000000000000000000000081526004016100b290610333565b60405180910390fd5b60008373ffffffffffffffffffffffffffffffffffffffff166323b872dd3385856040518463ffffffff1660e01b81526004016100fa93929190610371565b6020604051808303816000875af1158015610119573d6000803e3d6000fd5b505050506040513d601f19601f8201168201806040525081019061013d91906103e0565b90508061017f576040517f08c379a000000000000000000000000000000000000000000000000000000000815260040161017690610459565b60405180910390fd5b8273ffffffffffffffffffffffffffffffffffffffff163373ffffffffffffffffffffffffffffffffffffffff167fc95d558e25335222b51e6424166172914e7ce4404a9647d3631ef320294081fd846040516101dc9190610479565b60405180910390a350505050565b600080fd5b600073ffffffffffffffffffffffffffffffffffffffff82169050919050565b600061021a826101ef565b9050919050565b61022a8161020f565b811461023557600080fd5b50565b60008135905061024781610221565b92915050565b6000819050919050565b6102608161024d565b811461026b57600080fd5b50565b60008135905061027d81610257565b92915050565b60008060006060848603121561029c5761029b6101ea565b5b60006102aa86828701610238565b93505060206102bb86828701610238565b92505060406102cc8682870161026e565b9150509250925092565b600082825260208201905092915050565b7f496e76616c696420726563697069656e74000000000000000000000000000000600082015250565b600061031d6011836102d6565b9150610328826102e7565b602082019050919050565b6000602082019050818103600083015261034c81610310565b9050919050565b61035c8161020f565b82525050565b61036b8161024d565b82525050565b60006060820190506103866000830186610353565b6103936020830185610353565b6103a06040830184610362565b949350505050565b60008115159050919050565b6103bd816103a8565b81146103c857600080fd5b50565b6000815190506103da816103b4565b92915050565b6000602082840312156103f6576103f56101ea565b5b6000610404848285016103cb565b91505092915050565b7f546f6b656e207472616e73666572206661696c65640000000000000000000000600082015250565b60006104436015836102d6565b915061044e8261040d565b602082019050919050565b6000602082019050818103600083015261047281610436565b9050919050565b600060208201905061048e6000830184610362565b9291505056fea26469706673582212205937c0d8dd4c71c09f87df42744609d3111b59c8e94927d24efbd9a6fdaf671e64736f6c63430008140033",
  "linkReferences": {},
  "deployedLinkReferences": {}
}