{"contracts/TokenTransfer.sol":{"TokenTransfer":{"abi":[{"anonymous":false,"inputs":[{"indexed":true,"internalType":"address","name":"from","type":"address"},{"indexed":true,"internalType":"address","name":"to","type":"address"},{"indexed":false,"internalType":"uint256","name":"amount","type":"uint256"}],"name":"TransferExecuted","type":"event"},{"inputs":[{"internalType":"address","name":"token","type":"address"},{"internalType":"address","name":"to","type":"address"},{"internalType":"uint256","name":"amount","type":"uint256"}],"name":"transferToken","outputs":[],"stateMutability":"nonpayable","type":"function"}],"devdoc":{"kind":"dev","methods":{},"version":1},"evm":{"bytecode":{"linkReferences":{},"object":"608060405234801561001057600080fd5b506104ca806100206000396000f3fe608060405234801561001057600080fd5b506004361061002b5760003560e01c8063f5537ede14610030575b600080fd5b61004a60048036038101906100459190610283565b61004c565b005b600073ffffffffffffffffffffffffffffffffffffffff168273ffffffffffffffffffffffffffffffffffffffff16036100bb576040517f08c379a00000000000000000000000000000000000000000000000000000000081526004016100b290610333565b60405180910390fd5b60008373ffffffffffffffffffffffffffffffffffffffff166323b872dd3385856040518463ffffffff1660e01b81526004016100fa93929190610371565b6020604051808303816000875af1158015610119573d6000803e3d6000fd5b505050506040513d601f19601f8201168201806040525081019061013d91906103e0565b90508061017f576040517f08c379a000000000000000000000000000000000000000000000000000000000815260040161017690610459565b60405180910390fd5b8273ffffffffffffffffffffffffffffffffffffffff163373ffffffffffffffffffffffffffffffffffffffff167fc95d558e25335222b51e6424166172914e7ce4404a9647d3631ef320294081fd846040516101dc9190610479565b60405180910390a350505050565b600080fd5b600073ffffffffffffffffffffffffffffffffffffffff82169050919050565b600061021a826101ef565b9050919050565b61022a8161020f565b811461023557600080fd5b50565b60008135905061024781610221565b92915050565b6000819050919050565b6102608161024d565b811461026b57600080fd5b50565b60008135905061027d81610257565b92915050565b60008060006060848603121561029c5761029b6101ea565b5b60006102aa86828701610238565b93505060206102bb86828701610238565b92505060406102cc8682870161026e565b9150509250925092565b600082825260208201905092915050565b7f496e76616c696420726563697069656e74000000000000000000000000000000600082015250565b600061031d6011836102d6565b9150610328826102e7565b602082019050919050565b6000602082019050818103600083015261034c81610310565b9050919050565b61035c8161020f565b82525050565b61036b8161024d565b82525050565b60006060820190506103866000830186610353565b6103936020830185610353565b6103a06040830184610362565b949350505050565b60008115159050919050565b6103bd816103a8565b81146103c857600080fd5b50565b6000815190506103da816103b4565b92915050565b6000602082840312156103f6576103f56101ea565b5b6000610404848285016103cb565b91505092915050565b7f546f6b656e207472616e73666572206661696c65640000000000000000000000600082015250565b60006104436015836102d6565b915061044e8261040d565b602082019050919050565b6000602082019050818103600083015261047281610436565b9050919050565b600060208201905061048e6000830184610362565b9291505056fea26469706673582212205937c0d8dd4c71c09f87df42744609d3111b59c8e94927d24efbd9a6fdaf671e64736f6c63430008140033","opcodes":"PUSH1 0x80 PUSH1 0x40 MSTORE CALLVALUE DUP1 ISZERO PUSH2 0x10 JUMPI PUSH1 0x0 DUP1 REVERT JUMPDEST POP PUSH2 0x4CA DUP1 PUSH2 0x20 PUSH1 0x0 CODECOPY PUSH1 0x0 RETURN INVALID PUSH1 0x80 PUSH1 0x40 MSTORE CALLVALUE DUP1 ISZERO PUSH2 0x10 JUMPI PUSH1 0x0 DUP1 REVERT JUMPDEST POP PUSH1 0x4 CALLDATASIZE LT PUSH2 0x2B JUMPI PUSH1 0x0 CALLDATALOAD PUSH1 0xE0 SHR DUP1 PUSH4 0xF5537EDE EQ PUSH2 0x30 JUMPI JUMPDEST PUSH1 0x0 DUP1 REVERT JUMPDEST PUSH2 0x4A PUSH1 0x4 DUP1 CALLDATASIZE SUB DUP2 ADD SWAP1 PUSH2 0x45 SWAP2 SWAP1 PUSH2 0x283 JUMP JUMPDEST PUSH2 0x4C JUMP JUMPDEST STOP JUMPDEST PUSH1 0x0 PUSH20 0xFFFFFFFFFFFFFFFFFFFFFFFFFFFFFFFFFFFFFFFF AND DUP3 PUSH20 0xFFFFFFFFFFFFFFFFFFFFFFFFFFFFFFFFFFFFFFFF AND SUB PUSH2 0xBB JUMPI PUSH1 0x40 MLOAD PUSH32 0x8C379A000000000000000000000000000000000000000000000000000000000 DUP2 MSTORE PUSH1 0x4 ADD PUSH2 0xB2 SWAP1 PUSH2 0x333 JUMP JUMPDEST PUSH1 0x40 MLOAD DUP1 SWAP2 SUB SWAP1 REVERT JUMPDEST PUSH1 0x0 DUP4 PUSH20 0xFFFFFFFFFFFFFFFFFFFFFFFFFFFFFFFFFFFFFFFF AND PUSH4 0x23B872DD CALLER DUP6 DUP6 PUSH1 0x40 MLOAD DUP5 PUSH4 0xFFFFFFFF AND PUSH1 0xE0 SHL DUP2 MSTORE PUSH1 0x4 ADD PUSH2 0xFA SWAP4 SWAP3 SWAP2 SWAP1 PUSH2 0x371 JUMP JUMPDEST PUSH1 0x20 PUSH1 0x40 MLOAD DUP1 DUP4 SUB DUP2 PUSH1 0x0 DUP8 GAS CALL ISZERO DUP1 ISZERO PUSH2 0x119 JUMPI RETURNDATASIZE PUSH1 0x0 DUP1 RETURNDATACOPY RETURNDATASIZE PUSH1 0x0 REVERT JUMPDEST POP POP POP POP PUSH1 0x40 MLOAD RETURNDATASIZE PUSH1 0x1F NOT PUSH1 0x1F DUP3 ADD AND DUP3 ADD DUP1 PUSH1 0x40 MSTORE POP DUP2 ADD SWAP1 PUSH2 0x13D SWAP2 SWAP1 PUSH2 0x3E0 JUMP JUMPDEST SWAP1 POP DUP1 PUSH2 0x17F JUMPI PUSH1 0x40 MLOAD PUSH32 0x8C379A000000000000000000000000000000000000000000000000000000000 DUP2 MSTORE PUSH1 0x4 ADD PUSH2 0x176 SWAP1 PUSH2 0x459 JUMP JUMPDEST PUSH1 0x40 MLOAD DUP1 SWAP2 SUB SWAP1 REVERT JUMPDEST DUP3 PUSH20 0xFFFFFFFFFFFFFFFFFFFFFFFFFFFFFFFFFFFFFFFF AND CALLER PUSH20 0xFFFFFFFFFFFFFFFFFFFFFFFFFFFFFFFFFFFFFFFF AND PUSH32 0xC95D558E25335222B51E6424166172914E7CE4404A9647D3631EF320294081FD DUP5 PUSH1 0x40 MLOAD PUSH2 0x1DC SWAP2 SWAP1 PUSH2 0x479 JUMP JUMPDEST PUSH1 0x40 MLOAD DUP1 SWAP2 SUB SWAP1 LOG3 POP POP POP POP JUMP JUMPDEST PUSH1 0x0 DUP1 REVERT JUMPDEST PUSH1 0x0 PUSH20 0xFFFFFFFFFFFFFFFFFFFFFFFFFFFFFFFFFFFFFFFF DUP3 AND SWAP1 POP SWAP2 SWAP1 POP JUMP JUMPDEST PUSH1 0x0 PUSH2 0x21A DUP3 PUSH2 0x1EF JUMP JUMPDEST SWAP1 POP SWAP2 SWAP1 POP JUMP JUMPDEST PUSH2 0x22A DUP2 PUSH2 0x20F JUMP JUMPDEST DUP2 EQ PUSH2 0x235 JUMPI PUSH1 0x0 DUP1 REVERT JUMPDEST POP JUMP JUMPDEST PUSH1 0x0 DUP2 CALLDATALOAD SWAP1 POP PUSH2 0x247 DUP2 PUSH2 0x221 JUMP JUMPDEST SWAP3 SWAP2 POP POP JUMP JUMPDEST PUSH1 0x0 DUP2 SWAP1 POP SWAP2 SWAP1 POP JUMP JUMPDEST PUSH2 0x260 DUP2 PUSH2 0x24D JUMP JUMPDEST DUP2 EQ PUSH2 0x26B JUMPI PUSH1 0x0 DUP1 REVERT JUMPDEST POP JUMP JUMPDEST PUSH1 0x0 DUP2 CALLDATALOAD SWAP1 POP PUSH2 0x27D DUP2 PUSH2 0x257 JUMP JUMPDEST SWAP3 SWAP2 POP POP JUMP JUMPDEST PUSH1 0x0 DUP1 PUSH1 0x0 PUSH1 0x60 DUP5 DUP7 SUB SLT ISZERO PUSH2 0x29C JUMPI PUSH2 0x29B PUSH2 0x1EA JUMP JUMPDEST JUMPDEST PUSH1 0x0 PUSH2 0x2AA DUP7 DUP3 DUP8 ADD PUSH2 0x238 JUMP JUMPDEST SWAP4 POP POP PUSH1 0x20 PUSH2 0x2BB DUP7 DUP3 DUP8 ADD PUSH2 0x238 JUMP JUMPDEST SWAP3 POP POP PUSH1 0x40 PUSH2 0x2CC DUP7 DUP3 DUP8 ADD PUSH2 0x26E JUMP JUMPDEST SWAP2 POP POP SWAP3 POP SWAP3 POP SWAP3 JUMP JUMPDEST PUSH1 0x0 DUP3 DUP3 MSTORE PUSH1 0x20 DUP3 ADD SWAP1 POP SWAP3 SWAP2 POP POP JUMP JUMPDEST PUSH32 0x496E76616C696420726563697069656E74000000000000000000000000000000 PUSH1 0x0 DUP3 ADD MSTORE POP JUMP JUMPDEST PUSH1 0x0 PUSH2 0x31D PUSH1 0x11 DUP4 PUSH2 0x2D6 JUMP JUMPDEST SWAP2 POP PUSH2 0x328 DUP3 PUSH2 0x2E7 JUMP JUMPDEST PUSH1 0x20 DUP3 ADD SWAP1 POP SWAP2 SWAP1 POP JUMP JUMPDEST PUSH1 0x0 PUSH1 0x20 DUP3 ADD SWAP1 POP DUP2 DUP2 SUB PUSH1 0x0 DUP4 ADD MSTORE PUSH2 0x34C DUP2 PUSH2 0x310 JUMP JUMPDEST SWAP1 POP SWAP2 SWAP1 POP JUMP JUMPDEST PUSH2 0x35C DUP2 PUSH2 0x20F JUMP JUMPDEST DUP3 MSTORE POP POP JUMP JUMPDEST PUSH2 0x36B DUP2 PUSH2 0x24D JUMP JUMPDEST DUP3 MSTORE POP POP JUMP JUMPDEST PUSH1 0x0 PUSH1 0x60 DUP3 ADD SWAP1 POP PUSH2 0x386 PUSH1 0x0 DUP4 ADD DUP7 PUSH2 0x353 JUMP JUMPDEST PUSH2 0x393 PUSH1 0x20 DUP4 ADD DUP6 PUSH2 0x353 JUMP JUMPDEST PUSH2 0x3A0 PUSH1 0x40 DUP4 ADD DUP5 PUSH2 0x362 JUMP JUMPDEST SWAP5 SWAP4 POP POP POP POP JUMP JUMPDEST PUSH1 0x0 DUP2 ISZERO ISZERO SWAP1 POP SWAP2 SWAP1 POP JUMP JUMPDEST PUSH2 0x3BD DUP2 PUSH2 0x3A8 JUMP JUMPDEST DUP2 EQ PUSH2 0x3C8 JUMPI PUSH1 0x0 DUP1 REVERT JUMPDEST POP JUMP JUMPDEST PUSH1 0x0 DUP2 MLOAD SWAP1 POP PUSH2 0x3DA DUP2 PUSH2 0x3B4 JUMP JUMPDEST SWAP3 SWAP2 POP POP JUMP JUMPDEST PUSH1 0x0 PUSH1 0x20 DUP3 DUP5 SUB SLT ISZERO PUSH2 0x3F6 JUMPI PUSH2 0x3F5 PUSH2 0x1EA JUMP JUMPDEST JUMPDEST PUSH1 0x0 PUSH2 0x404 DUP5 DUP3 DUP6 ADD PUSH2 0x3CB JUMP JUMPDEST SWAP2 POP POP SWAP3 SWAP2 POP POP JUMP JUMPDEST PUSH32 0x546F6B656E207472616E73666572206661696C65640000000000000000000000 PUSH1 0x0 DUP3 ADD MSTORE POP JUMP JUMPDEST PUSH1 0x0 PUSH2 0x443 PUSH1 0x15 DUP4 PUSH2 0x2D6 JUMP JUMPDEST SWAP2 POP PUSH2 0x44E DUP3 PUSH2 0x40D JUMP JUMPDEST PUSH1 0x20 DUP3 ADD SWAP1 POP SWAP2 SWAP1 POP JUMP JUMPDEST PUSH1 0x0 PUSH1 0x20 DUP3 ADD SWAP1 POP DUP2 DUP2 SUB PUSH1 0x0 DUP4 ADD MSTORE PUSH2 0x472 DUP2 PUSH2 0x436 JUMP JUMPDEST SWAP1 POP SWAP2 SWAP1 POP JUMP JUMPDEST PUSH1 0x0 PUSH1 0x20 DUP3 ADD SWAP1 POP PUSH2 0x48E PUSH1 0x0 DUP4 ADD DUP5 PUSH2 0x362 JUMP JUMPDEST SWAP3 SWAP2 POP POP JUMP INVALID LOG2 PUSH5 0x6970667358 0x22 SLT KECCAK256 MSIZE CALLDATACOPY 0xC0 0xD8 0xDD 0x4C PUSH18 0xC09F87DF42744609D3111B59C8E94927D24E 0xFB 0xD9 0xA6 REVERT 0xAF PUSH8 0x1E64736F6C634300 ADDMOD EQ STOP CALLER "},"gasEstimates":{"creation":{"codeDepositCost":"245200","executionCost":"287","totalCost":"245487"},"external":{"transferToken(address,address,uint256)":"infinite"}},"methodIdentifiers":{"transferToken(address,address,uint256)":"f5537ede"}},"storageLayout":{"storage":[],"types":null},"userdoc":{"kind":"user","methods":{},"version":1}}}}