{
	"contracts/TokenTransfer.sol": {
		"TokenTransfer": {
			"abi": [
				{
					"inputs": [
						{
							"internalType": "address",
							"name": "token",
							"type": "address"
						},
						{
							"internalType": "address",
							"name": "to",
							"type": "address"
						},
						{
							"internalType": "uint256",
							"name": "amount",
							"type": "uint256"
						}
					],
					"name": "transferToken",
					"outputs": [],
					"stateMutability": "nonpayable",
					"type": "function"
				}
			],
			"devdoc": {
				"kind": "dev",
				"methods": {},
				"version": 1
			},
			"evm": {
				"assembly": "    /* \"contracts/TokenTransfer.sol\":61:396  contract TokenTransfer {... */\n  mstore(0x40, 0x80)\n  callvalue\n  dup1\n  iszero\n  tag_1\n  jumpi\n  0x00\n  dup1\n  revert\ntag_1:\n  pop\n  dataSize(sub_0)\n  dup1\n  dataOffset(sub_0)\n  0x00\n  codecopy\n  0x00\n  return\nstop\n\nsub_0: assembly {\n        /* \"contracts/TokenTransfer.sol\":61:396  contract TokenTransfer {... */\n      mstore(0x40, 0x80)\n      callvalue\n      dup1\n      iszero\n      tag_1\n      jumpi\n      0x00\n      dup1\n      revert\n    tag_1:\n      pop\n      jumpi(tag_2, lt(calldatasize, 0x04))\n      shr(0xe0, calldataload(0x00))\n      dup1\n      0xf5537ede\n      eq\n      tag_3\n      jumpi\n    tag_2:\n      0x00\n      dup1\n      revert\n        /* \"contracts/TokenTransfer.sol\":91:393  function transferToken(... */\n    tag_3:\n      tag_4\n      0x04\n      dup1\n      calldatasize\n      sub\n      dup2\n      add\n      swap1\n      tag_5\n      swap2\n      swap1\n      tag_6\n      jump\t// in\n    tag_5:\n      tag_7\n      jump\t// in\n    tag_4:\n      stop\n    tag_7:\n        /* \"contracts/TokenTransfer.sol\":233:234  0 */\n      0x00\n        /* \"contracts/TokenTransfer.sol\":219:235  to != address(0) */\n      0xffffffffffffffffffffffffffffffffffffffff\n      and\n        /* \"contracts/TokenTransfer.sol\":219:221  to */\n      dup3\n        /* \"contracts/TokenTransfer.sol\":219:235  to != address(0) */\n      0xffffffffffffffffffffffffffffffffffffffff\n      and\n      sub\n        /* \"contracts/TokenTransfer.sol\":211:257  require(to != address(0), \"Invalid recipient\") */\n      tag_9\n      jumpi\n      mload(0x40)\n      0x08c379a000000000000000000000000000000000000000000000000000000000\n      dup2\n      mstore\n      0x04\n      add\n      tag_10\n      swap1\n      tag_11\n      jump\t// in\n    tag_10:\n      mload(0x40)\n      dup1\n      swap2\n      sub\n      swap1\n      revert\n    tag_9:\n        /* \"contracts/TokenTransfer.sol\":268:280  bool success */\n      0x00\n        /* \"contracts/TokenTransfer.sol\":290:295  token */\n      dup4\n        /* \"contracts/TokenTransfer.sol\":283:309  IERC20(token).transferFrom */\n      0xffffffffffffffffffffffffffffffffffffffff\n      and\n      0x23b872dd\n        /* \"contracts/TokenTransfer.sol\":310:320  msg.sender */\n      caller\n        /* \"contracts/TokenTransfer.sol\":322:324  to */\n      dup6\n        /* \"contracts/TokenTransfer.sol\":326:332  amount */\n      dup6\n        /* \"contracts/TokenTransfer.sol\":283:333  IERC20(token).transferFrom(msg.sender, to, amount) */\n      mload(0x40)\n      dup5\n      0xffffffff\n      and\n      0xe0\n      shl\n      dup2\n      mstore\n      0x04\n      add\n      tag_12\n      swap4\n      swap3\n      swap2\n      swap1\n      tag_13\n      jump\t// in\n    tag_12:\n      0x20\n      mload(0x40)\n      dup1\n      dup4\n      sub\n      dup2\n      0x00\n      dup8\n      gas\n      call\n      iszero\n      dup1\n      iszero\n      tag_15\n      jumpi\n      returndatasize\n      0x00\n      dup1\n      returndatacopy\n      revert(0x00, returndatasize)\n    tag_15:\n      pop\n      pop\n      pop\n      pop\n      mload(0x40)\n      returndatasize\n      not(0x1f)\n      0x1f\n      dup3\n      add\n      and\n      dup3\n      add\n      dup1\n      0x40\n      mstore\n      pop\n      dup2\n      add\n      swap1\n      tag_16\n      swap2\n      swap1\n      tag_17\n      jump\t// in\n    tag_16:\n        /* \"contracts/TokenTransfer.sol\":268:333  bool success = IERC20(token).transferFrom(msg.sender, to, amount) */\n      swap1\n      pop\n        /* \"contracts/TokenTransfer.sol\":352:359  success */\n      dup1\n        /* \"contracts/TokenTransfer.sol\":344:385  require(success, \"Token transfer failed\") */\n      tag_18\n      jumpi\n      mload(0x40)\n      0x08c379a000000000000000000000000000000000000000000000000000000000\n      dup2\n      mstore\n      0x04\n      add\n      tag_19\n      swap1\n      tag_20\n      jump\t// in\n    tag_19:\n      mload(0x40)\n      dup1\n      swap2\n      sub\n      swap1\n      revert\n    tag_18:\n        /* \"contracts/TokenTransfer.sol\":200:393  {... */\n      pop\n        /* \"contracts/TokenTransfer.sol\":91:393  function transferToken(... */\n      pop\n      pop\n      pop\n      jump\t// out\n        /* \"#utility.yul\":88:205   */\n    tag_22:\n        /* \"#utility.yul\":197:198   */\n      0x00\n        /* \"#utility.yul\":194:195   */\n      dup1\n        /* \"#utility.yul\":187:199   */\n      revert\n        /* \"#utility.yul\":334:460   */\n    tag_24:\n        /* \"#utility.yul\":371:378   */\n      0x00\n        /* \"#utility.yul\":411:453   */\n      0xffffffffffffffffffffffffffffffffffffffff\n        /* \"#utility.yul\":404:409   */\n      dup3\n        /* \"#utility.yul\":400:454   */\n      and\n        /* \"#utility.yul\":389:454   */\n      swap1\n      pop\n        /* \"#utility.yul\":334:460   */\n      swap2\n      swap1\n      pop\n      jump\t// out\n        /* \"#utility.yul\":466:562   */\n    tag_25:\n        /* \"#utility.yul\":503:510   */\n      0x00\n        /* \"#utility.yul\":532:556   */\n      tag_47\n        /* \"#utility.yul\":550:555   */\n      dup3\n        /* \"#utility.yul\":532:556   */\n      tag_24\n      jump\t// in\n    tag_47:\n        /* \"#utility.yul\":521:556   */\n      swap1\n      pop\n        /* \"#utility.yul\":466:562   */\n      swap2\n      swap1\n      pop\n      jump\t// out\n        /* \"#utility.yul\":568:690   */\n    tag_26:\n        /* \"#utility.yul\":641:665   */\n      tag_49\n        /* \"#utility.yul\":659:664   */\n      dup2\n        /* \"#utility.yul\":641:665   */\n      tag_25\n      jump\t// in\n    tag_49:\n        /* \"#utility.yul\":634:639   */\n      dup2\n        /* \"#utility.yul\":631:666   */\n      eq\n        /* \"#utility.yul\":621:684   */\n      tag_50\n      jumpi\n        /* \"#utility.yul\":680:681   */\n      0x00\n        /* \"#utility.yul\":677:678   */\n      dup1\n        /* \"#utility.yul\":670:682   */\n      revert\n        /* \"#utility.yul\":621:684   */\n    tag_50:\n        /* \"#utility.yul\":568:690   */\n      pop\n      jump\t// out\n        /* \"#utility.yul\":696:835   */\n    tag_27:\n        /* \"#utility.yul\":742:747   */\n      0x00\n        /* \"#utility.yul\":780:786   */\n      dup2\n        /* \"#utility.yul\":767:787   */\n      calldataload\n        /* \"#utility.yul\":758:787   */\n      swap1\n      pop\n        /* \"#utility.yul\":796:829   */\n      tag_52\n        /* \"#utility.yul\":823:828   */\n      dup2\n        /* \"#utility.yul\":796:829   */\n      tag_26\n      jump\t// in\n    tag_52:\n        /* \"#utility.yul\":696:835   */\n      swap3\n      swap2\n      pop\n      pop\n      jump\t// out\n        /* \"#utility.yul\":841:918   */\n    tag_28:\n        /* \"#utility.yul\":878:885   */\n      0x00\n        /* \"#utility.yul\":907:912   */\n      dup2\n        /* \"#utility.yul\":896:912   */\n      swap1\n      pop\n        /* \"#utility.yul\":841:918   */\n      swap2\n      swap1\n      pop\n      jump\t// out\n        /* \"#utility.yul\":924:1046   */\n    tag_29:\n        /* \"#utility.yul\":997:1021   */\n      tag_55\n        /* \"#utility.yul\":1015:1020   */\n      dup2\n        /* \"#utility.yul\":997:1021   */\n      tag_28\n      jump\t// in\n    tag_55:\n        /* \"#utility.yul\":990:995   */\n      dup2\n        /* \"#utility.yul\":987:1022   */\n      eq\n        /* \"#utility.yul\":977:1040   */\n      tag_56\n      jumpi\n        /* \"#utility.yul\":1036:1037   */\n      0x00\n        /* \"#utility.yul\":1033:1034   */\n      dup1\n        /* \"#utility.yul\":1026:1038   */\n      revert\n        /* \"#utility.yul\":977:1040   */\n    tag_56:\n        /* \"#utility.yul\":924:1046   */\n      pop\n      jump\t// out\n        /* \"#utility.yul\":1052:1191   */\n    tag_30:\n        /* \"#utility.yul\":1098:1103   */\n      0x00\n        /* \"#utility.yul\":1136:1142   */\n      dup2\n        /* \"#utility.yul\":1123:1143   */\n      calldataload\n        /* \"#utility.yul\":1114:1143   */\n      swap1\n      pop\n        /* \"#utility.yul\":1152:1185   */\n      tag_58\n        /* \"#utility.yul\":1179:1184   */\n      dup2\n        /* \"#utility.yul\":1152:1185   */\n      tag_29\n      jump\t// in\n    tag_58:\n        /* \"#utility.yul\":1052:1191   */\n      swap3\n      swap2\n      pop\n      pop\n      jump\t// out\n        /* \"#utility.yul\":1197:1816   */\n    tag_6:\n        /* \"#utility.yul\":1274:1280   */\n      0x00\n        /* \"#utility.yul\":1282:1288   */\n      dup1\n        /* \"#utility.yul\":1290:1296   */\n      0x00\n        /* \"#utility.yul\":1339:1341   */\n      0x60\n        /* \"#utility.yul\":1327:1336   */\n      dup5\n        /* \"#utility.yul\":1318:1325   */\n      dup7\n        /* \"#utility.yul\":1314:1337   */\n      sub\n        /* \"#utility.yul\":1310:1342   */\n      slt\n        /* \"#utility.yul\":1307:1426   */\n      iszero\n      tag_60\n      jumpi\n        /* \"#utility.yul\":1345:1424   */\n      tag_61\n      tag_22\n      jump\t// in\n    tag_61:\n        /* \"#utility.yul\":1307:1426   */\n    tag_60:\n        /* \"#utility.yul\":1465:1466   */\n      0x00\n        /* \"#utility.yul\":1490:1543   */\n      tag_62\n        /* \"#utility.yul\":1535:1542   */\n      dup7\n        /* \"#utility.yul\":1526:1532   */\n      dup3\n        /* \"#utility.yul\":1515:1524   */\n      dup8\n        /* \"#utility.yul\":1511:1533   */\n      add\n        /* \"#utility.yul\":1490:1543   */\n      tag_27\n      jump\t// in\n    tag_62:\n        /* \"#utility.yul\":1480:1543   */\n      swap4\n      pop\n        /* \"#utility.yul\":1436:1553   */\n      pop\n        /* \"#utility.yul\":1592:1594   */\n      0x20\n        /* \"#utility.yul\":1618:1671   */\n      tag_63\n        /* \"#utility.yul\":1663:1670   */\n      dup7\n        /* \"#utility.yul\":1654:1660   */\n      dup3\n        /* \"#utility.yul\":1643:1652   */\n      dup8\n        /* \"#utility.yul\":1639:1661   */\n      add\n        /* \"#utility.yul\":1618:1671   */\n      tag_27\n      jump\t// in\n    tag_63:\n        /* \"#utility.yul\":1608:1671   */\n      swap3\n      pop\n        /* \"#utility.yul\":1563:1681   */\n      pop\n        /* \"#utility.yul\":1720:1722   */\n      0x40\n        /* \"#utility.yul\":1746:1799   */\n      tag_64\n        /* \"#utility.yul\":1791:1798   */\n      dup7\n        /* \"#utility.yul\":1782:1788   */\n      dup3\n        /* \"#utility.yul\":1771:1780   */\n      dup8\n        /* \"#utility.yul\":1767:1789   */\n      add\n        /* \"#utility.yul\":1746:1799   */\n      tag_30\n      jump\t// in\n    tag_64:\n        /* \"#utility.yul\":1736:1799   */\n      swap2\n      pop\n        /* \"#utility.yul\":1691:1809   */\n      pop\n        /* \"#utility.yul\":1197:1816   */\n      swap3\n      pop\n      swap3\n      pop\n      swap3\n      jump\t// out\n        /* \"#utility.yul\":1822:1991   */\n    tag_31:\n        /* \"#utility.yul\":1906:1917   */\n      0x00\n        /* \"#utility.yul\":1940:1946   */\n      dup3\n        /* \"#utility.yul\":1935:1938   */\n      dup3\n        /* \"#utility.yul\":1928:1947   */\n      mstore\n        /* \"#utility.yul\":1980:1984   */\n      0x20\n        /* \"#utility.yul\":1975:1978   */\n      dup3\n        /* \"#utility.yul\":1971:1985   */\n      add\n        /* \"#utility.yul\":1956:1985   */\n      swap1\n      pop\n        /* \"#utility.yul\":1822:1991   */\n      swap3\n      swap2\n      pop\n      pop\n      jump\t// out\n        /* \"#utility.yul\":1997:2164   */\n    tag_32:\n        /* \"#utility.yul\":2137:2156   */\n      0x496e76616c696420726563697069656e74000000000000000000000000000000\n        /* \"#utility.yul\":2133:2134   */\n      0x00\n        /* \"#utility.yul\":2125:2131   */\n      dup3\n        /* \"#utility.yul\":2121:2135   */\n      add\n        /* \"#utility.yul\":2114:2157   */\n      mstore\n        /* \"#utility.yul\":1997:2164   */\n      pop\n      jump\t// out\n        /* \"#utility.yul\":2170:2536   */\n    tag_33:\n        /* \"#utility.yul\":2312:2315   */\n      0x00\n        /* \"#utility.yul\":2333:2400   */\n      tag_68\n        /* \"#utility.yul\":2397:2399   */\n      0x11\n        /* \"#utility.yul\":2392:2395   */\n      dup4\n        /* \"#utility.yul\":2333:2400   */\n      tag_31\n      jump\t// in\n    tag_68:\n        /* \"#utility.yul\":2326:2400   */\n      swap2\n      pop\n        /* \"#utility.yul\":2409:2502   */\n      tag_69\n        /* \"#utility.yul\":2498:2501   */\n      dup3\n        /* \"#utility.yul\":2409:2502   */\n      tag_32\n      jump\t// in\n    tag_69:\n        /* \"#utility.yul\":2527:2529   */\n      0x20\n        /* \"#utility.yul\":2522:2525   */\n      dup3\n        /* \"#utility.yul\":2518:2530   */\n      add\n        /* \"#utility.yul\":2511:2530   */\n      swap1\n      pop\n        /* \"#utility.yul\":2170:2536   */\n      swap2\n      swap1\n      pop\n      jump\t// out\n        /* \"#utility.yul\":2542:2961   */\n    tag_11:\n        /* \"#utility.yul\":2708:2712   */\n      0x00\n        /* \"#utility.yul\":2746:2748   */\n      0x20\n        /* \"#utility.yul\":2735:2744   */\n      dup3\n        /* \"#utility.yul\":2731:2749   */\n      add\n        /* \"#utility.yul\":2723:2749   */\n      swap1\n      pop\n        /* \"#utility.yul\":2795:2804   */\n      dup2\n        /* \"#utility.yul\":2789:2793   */\n      dup2\n        /* \"#utility.yul\":2785:2805   */\n      sub\n        /* \"#utility.yul\":2781:2782   */\n      0x00\n        /* \"#utility.yul\":2770:2779   */\n      dup4\n        /* \"#utility.yul\":2766:2783   */\n      add\n        /* \"#utility.yul\":2759:2806   */\n      mstore\n        /* \"#utility.yul\":2823:2954   */\n      tag_71\n        /* \"#utility.yul\":2949:2953   */\n      dup2\n        /* \"#utility.yul\":2823:2954   */\n      tag_33\n      jump\t// in\n    tag_71:\n        /* \"#utility.yul\":2815:2954   */\n      swap1\n      pop\n        /* \"#utility.yul\":2542:2961   */\n      swap2\n      swap1\n      pop\n      jump\t// out\n        /* \"#utility.yul\":2967:3085   */\n    tag_34:\n        /* \"#utility.yul\":3054:3078   */\n      tag_73\n        /* \"#utility.yul\":3072:3077   */\n      dup2\n        /* \"#utility.yul\":3054:3078   */\n      tag_25\n      jump\t// in\n    tag_73:\n        /* \"#utility.yul\":3049:3052   */\n      dup3\n        /* \"#utility.yul\":3042:3079   */\n      mstore\n        /* \"#utility.yul\":2967:3085   */\n      pop\n      pop\n      jump\t// out\n        /* \"#utility.yul\":3091:3209   */\n    tag_35:\n        /* \"#utility.yul\":3178:3202   */\n      tag_75\n        /* \"#utility.yul\":3196:3201   */\n      dup2\n        /* \"#utility.yul\":3178:3202   */\n      tag_28\n      jump\t// in\n    tag_75:\n        /* \"#utility.yul\":3173:3176   */\n      dup3\n        /* \"#utility.yul\":3166:3203   */\n      mstore\n        /* \"#utility.yul\":3091:3209   */\n      pop\n      pop\n      jump\t// out\n        /* \"#utility.yul\":3215:3657   */\n    tag_13:\n        /* \"#utility.yul\":3364:3368   */\n      0x00\n        /* \"#utility.yul\":3402:3404   */\n      0x60\n        /* \"#utility.yul\":3391:3400   */\n      dup3\n        /* \"#utility.yul\":3387:3405   */\n      add\n        /* \"#utility.yul\":3379:3405   */\n      swap1\n      pop\n        /* \"#utility.yul\":3415:3486   */\n      tag_77\n        /* \"#utility.yul\":3483:3484   */\n      0x00\n        /* \"#utility.yul\":3472:3481   */\n      dup4\n        /* \"#utility.yul\":3468:3485   */\n      add\n        /* \"#utility.yul\":3459:3465   */\n      dup7\n        /* \"#utility.yul\":3415:3486   */\n      tag_34\n      jump\t// in\n    tag_77:\n        /* \"#utility.yul\":3496:3568   */\n      tag_78\n        /* \"#utility.yul\":3564:3566   */\n      0x20\n        /* \"#utility.yul\":3553:3562   */\n      dup4\n        /* \"#utility.yul\":3549:3567   */\n      add\n        /* \"#utility.yul\":3540:3546   */\n      dup6\n        /* \"#utility.yul\":3496:3568   */\n      tag_34\n      jump\t// in\n    tag_78:\n        /* \"#utility.yul\":3578:3650   */\n      tag_79\n        /* \"#utility.yul\":3646:3648   */\n      0x40\n        /* \"#utility.yul\":3635:3644   */\n      dup4\n        /* \"#utility.yul\":3631:3649   */\n      add\n        /* \"#utility.yul\":3622:3628   */\n      dup5\n        /* \"#utility.yul\":3578:3650   */\n      tag_35\n      jump\t// in\n    tag_79:\n        /* \"#utility.yul\":3215:3657   */\n      swap5\n      swap4\n      pop\n      pop\n      pop\n      pop\n      jump\t// out\n        /* \"#utility.yul\":3663:3753   */\n    tag_36:\n        /* \"#utility.yul\":3697:3704   */\n      0x00\n        /* \"#utility.yul\":3740:3745   */\n      dup2\n        /* \"#utility.yul\":3733:3746   */\n      iszero\n        /* \"#utility.yul\":3726:3747   */\n      iszero\n        /* \"#utility.yul\":3715:3747   */\n      swap1\n      pop\n        /* \"#utility.yul\":3663:3753   */\n      swap2\n      swap1\n      pop\n      jump\t// out\n        /* \"#utility.yul\":3759:3875   */\n    tag_37:\n        /* \"#utility.yul\":3829:3850   */\n      tag_82\n        /* \"#utility.yul\":3844:3849   */\n      dup2\n        /* \"#utility.yul\":3829:3850   */\n      tag_36\n      jump\t// in\n    tag_82:\n        /* \"#utility.yul\":3822:3827   */\n      dup2\n        /* \"#utility.yul\":3819:3851   */\n      eq\n        /* \"#utility.yul\":3809:3869   */\n      tag_83\n      jumpi\n        /* \"#utility.yul\":3865:3866   */\n      0x00\n        /* \"#utility.yul\":3862:3863   */\n      dup1\n        /* \"#utility.yul\":3855:3867   */\n      revert\n        /* \"#utility.yul\":3809:3869   */\n    tag_83:\n        /* \"#utility.yul\":3759:3875   */\n      pop\n      jump\t// out\n        /* \"#utility.yul\":3881:4018   */\n    tag_38:\n        /* \"#utility.yul\":3935:3940   */\n      0x00\n        /* \"#utility.yul\":3966:3972   */\n      dup2\n        /* \"#utility.yul\":3960:3973   */\n      mload\n        /* \"#utility.yul\":3951:3973   */\n      swap1\n      pop\n        /* \"#utility.yul\":3982:4012   */\n      tag_85\n        /* \"#utility.yul\":4006:4011   */\n      dup2\n        /* \"#utility.yul\":3982:4012   */\n      tag_37\n      jump\t// in\n    tag_85:\n        /* \"#utility.yul\":3881:4018   */\n      swap3\n      swap2\n      pop\n      pop\n      jump\t// out\n        /* \"#utility.yul\":4024:4369   */\n    tag_17:\n        /* \"#utility.yul\":4091:4097   */\n      0x00\n        /* \"#utility.yul\":4140:4142   */\n      0x20\n        /* \"#utility.yul\":4128:4137   */\n      dup3\n        /* \"#utility.yul\":4119:4126   */\n      dup5\n        /* \"#utility.yul\":4115:4138   */\n      sub\n        /* \"#utility.yul\":4111:4143   */\n      slt\n        /* \"#utility.yul\":4108:4227   */\n      iszero\n      tag_87\n      jumpi\n        /* \"#utility.yul\":4146:4225   */\n      tag_88\n      tag_22\n      jump\t// in\n    tag_88:\n        /* \"#utility.yul\":4108:4227   */\n    tag_87:\n        /* \"#utility.yul\":4266:4267   */\n      0x00\n        /* \"#utility.yul\":4291:4352   */\n      tag_89\n        /* \"#utility.yul\":4344:4351   */\n      dup5\n        /* \"#utility.yul\":4335:4341   */\n      dup3\n        /* \"#utility.yul\":4324:4333   */\n      dup6\n        /* \"#utility.yul\":4320:4342   */\n      add\n        /* \"#utility.yul\":4291:4352   */\n      tag_38\n      jump\t// in\n    tag_89:\n        /* \"#utility.yul\":4281:4352   */\n      swap2\n      pop\n        /* \"#utility.yul\":4237:4362   */\n      pop\n        /* \"#utility.yul\":4024:4369   */\n      swap3\n      swap2\n      pop\n      pop\n      jump\t// out\n        /* \"#utility.yul\":4375:4546   */\n    tag_39:\n        /* \"#utility.yul\":4515:4538   */\n      0x546f6b656e207472616e73666572206661696c65640000000000000000000000\n        /* \"#utility.yul\":4511:4512   */\n      0x00\n        /* \"#utility.yul\":4503:4509   */\n      dup3\n        /* \"#utility.yul\":4499:4513   */\n      add\n        /* \"#utility.yul\":4492:4539   */\n      mstore\n        /* \"#utility.yul\":4375:4546   */\n      pop\n      jump\t// out\n        /* \"#utility.yul\":4552:4918   */\n    tag_40:\n        /* \"#utility.yul\":4694:4697   */\n      0x00\n        /* \"#utility.yul\":4715:4782   */\n      tag_92\n        /* \"#utility.yul\":4779:4781   */\n      0x15\n        /* \"#utility.yul\":4774:4777   */\n      dup4\n        /* \"#utility.yul\":4715:4782   */\n      tag_31\n      jump\t// in\n    tag_92:\n        /* \"#utility.yul\":4708:4782   */\n      swap2\n      pop\n        /* \"#utility.yul\":4791:4884   */\n      tag_93\n        /* \"#utility.yul\":4880:4883   */\n      dup3\n        /* \"#utility.yul\":4791:4884   */\n      tag_39\n      jump\t// in\n    tag_93:\n        /* \"#utility.yul\":4909:4911   */\n      0x20\n        /* \"#utility.yul\":4904:4907   */\n      dup3\n        /* \"#utility.yul\":4900:4912   */\n      add\n        /* \"#utility.yul\":4893:4912   */\n      swap1\n      pop\n        /* \"#utility.yul\":4552:4918   */\n      swap2\n      swap1\n      pop\n      jump\t// out\n        /* \"#utility.yul\":4924:5343   */\n    tag_20:\n        /* \"#utility.yul\":5090:5094   */\n      0x00\n        /* \"#utility.yul\":5128:5130   */\n      0x20\n        /* \"#utility.yul\":5117:5126   */\n      dup3\n        /* \"#utility.yul\":5113:5131   */\n      add\n        /* \"#utility.yul\":5105:5131   */\n      swap1\n      pop\n        /* \"#utility.yul\":5177:5186   */\n      dup2\n        /* \"#utility.yul\":5171:5175   */\n      dup2\n        /* \"#utility.yul\":5167:5187   */\n      sub\n        /* \"#utility.yul\":5163:5164   */\n      0x00\n        /* \"#utility.yul\":5152:5161   */\n      dup4\n        /* \"#utility.yul\":5148:5165   */\n      add\n        /* \"#utility.yul\":5141:5188   */\n      mstore\n        /* \"#utility.yul\":5205:5336   */\n      tag_95\n        /* \"#utility.yul\":5331:5335   */\n      dup2\n        /* \"#utility.yul\":5205:5336   */\n      tag_40\n      jump\t// in\n    tag_95:\n        /* \"#utility.yul\":5197:5336   */\n      swap1\n      pop\n        /* \"#utility.yul\":4924:5343   */\n      swap2\n      swap1\n      pop\n      jump\t// out\n\n    auxdata: 0xa2646970667358221220f9d8abc6c8fecf92732d2429a65c3934429121e12506c34a8a3dcb419d06487464736f6c63430008160033\n}\n",
				"bytecode": {
					"linkReferences": {},
					"object": "608060405234801561000f575f80fd5b506104278061001d5f395ff3fe608060405234801561000f575f80fd5b5060043610610029575f3560e01c8063f5537ede1461002d575b5f80fd5b6100476004803603810190610042919061020e565b610049565b005b5f73ffffffffffffffffffffffffffffffffffffffff168273ffffffffffffffffffffffffffffffffffffffff16036100b7576040517f08c379a00000000000000000000000000000000000000000000000000000000081526004016100ae906102b8565b60405180910390fd5b5f8373ffffffffffffffffffffffffffffffffffffffff166323b872dd3385856040518463ffffffff1660e01b81526004016100f5939291906102f4565b6020604051808303815f875af1158015610111573d5f803e3d5ffd5b505050506040513d601f19601f82011682018060405250810190610135919061035e565b905080610177576040517f08c379a000000000000000000000000000000000000000000000000000000000815260040161016e906103d3565b60405180910390fd5b50505050565b5f80fd5b5f73ffffffffffffffffffffffffffffffffffffffff82169050919050565b5f6101aa82610181565b9050919050565b6101ba816101a0565b81146101c4575f80fd5b50565b5f813590506101d5816101b1565b92915050565b5f819050919050565b6101ed816101db565b81146101f7575f80fd5b50565b5f81359050610208816101e4565b92915050565b5f805f606084860312156102255761022461017d565b5b5f610232868287016101c7565b9350506020610243868287016101c7565b9250506040610254868287016101fa565b9150509250925092565b5f82825260208201905092915050565b7f496e76616c696420726563697069656e740000000000000000000000000000005f82015250565b5f6102a260118361025e565b91506102ad8261026e565b602082019050919050565b5f6020820190508181035f8301526102cf81610296565b9050919050565b6102df816101a0565b82525050565b6102ee816101db565b82525050565b5f6060820190506103075f8301866102d6565b61031460208301856102d6565b61032160408301846102e5565b949350505050565b5f8115159050919050565b61033d81610329565b8114610347575f80fd5b50565b5f8151905061035881610334565b92915050565b5f602082840312156103735761037261017d565b5b5f6103808482850161034a565b91505092915050565b7f546f6b656e207472616e73666572206661696c656400000000000000000000005f82015250565b5f6103bd60158361025e565b91506103c882610389565b602082019050919050565b5f6020820190508181035f8301526103ea816103b1565b905091905056fea2646970667358221220f9d8abc6c8fecf92732d2429a65c3934429121e12506c34a8a3dcb419d06487464736f6c63430008160033",
					"opcodes": "PUSH1 0x80 PUSH1 0x40 MSTORE CALLVALUE DUP1 ISZERO PUSH2 0xF JUMPI PUSH0 DUP1 REVERT JUMPDEST POP PUSH2 0x427 DUP1 PUSH2 0x1D PUSH0 CODECOPY PUSH0 RETURN INVALID PUSH1 0x80 PUSH1 0x40 MSTORE CALLVALUE DUP1 ISZERO PUSH2 0xF JUMPI PUSH0 DUP1 REVERT JUMPDEST POP PUSH1 0x4 CALLDATASIZE LT PUSH2 0x29 JUMPI PUSH0 CALLDATALOAD PUSH1 0xE0 SHR DUP1 PUSH4 0xF5537EDE EQ PUSH2 0x2D JUMPI JUMPDEST PUSH0 DUP1 REVERT JUMPDEST PUSH2 0x47 PUSH1 0x4 DUP1 CALLDATASIZE SUB DUP2 ADD SWAP1 PUSH2 0x42 SWAP2 SWAP1 PUSH2 0x20E JUMP JUMPDEST PUSH2 0x49 JUMP JUMPDEST STOP JUMPDEST PUSH0 PUSH20 0xFFFFFFFFFFFFFFFFFFFFFFFFFFFFFFFFFFFFFFFF AND DUP3 PUSH20 0xFFFFFFFFFFFFFFFFFFFFFFFFFFFFFFFFFFFFFFFF AND SUB PUSH2 0xB7 JUMPI PUSH1 0x40 MLOAD PUSH32 0x8C379A000000000000000000000000000000000000000000000000000000000 DUP2 MSTORE PUSH1 0x4 ADD PUSH2 0xAE SWAP1 PUSH2 0x2B8 JUMP JUMPDEST PUSH1 0x40 MLOAD DUP1 SWAP2 SUB SWAP1 REVERT JUMPDEST PUSH0 DUP4 PUSH20 0xFFFFFFFFFFFFFFFFFFFFFFFFFFFFFFFFFFFFFFFF AND PUSH4 0x23B872DD CALLER DUP6 DUP6 PUSH1 0x40 MLOAD DUP5 PUSH4 0xFFFFFFFF AND PUSH1 0xE0 SHL DUP2 MSTORE PUSH1 0x4 ADD PUSH2 0xF5 SWAP4 SWAP3 SWAP2 SWAP1 PUSH2 0x2F4 JUMP JUMPDEST PUSH1 0x20 PUSH1 0x40 MLOAD DUP1 DUP4 SUB DUP2 PUSH0 DUP8 GAS CALL ISZERO DUP1 ISZERO PUSH2 0x111 JUMPI RETURNDATASIZE PUSH0 DUP1 RETURNDATACOPY RETURNDATASIZE PUSH0 REVERT JUMPDEST POP POP POP POP PUSH1 0x40 MLOAD RETURNDATASIZE PUSH1 0x1F NOT PUSH1 0x1F DUP3 ADD AND DUP3 ADD DUP1 PUSH1 0x40 MSTORE POP DUP2 ADD SWAP1 PUSH2 0x135 SWAP2 SWAP1 PUSH2 0x35E JUMP JUMPDEST SWAP1 POP DUP1 PUSH2 0x177 JUMPI PUSH1 0x40 MLOAD PUSH32 0x8C379A000000000000000000000000000000000000000000000000000000000 DUP2 MSTORE PUSH1 0x4 ADD PUSH2 0x16E SWAP1 PUSH2 0x3D3 JUMP JUMPDEST PUSH1 0x40 MLOAD DUP1 SWAP2 SUB SWAP1 REVERT JUMPDEST POP POP POP POP JUMP JUMPDEST PUSH0 DUP1 REVERT JUMPDEST PUSH0 PUSH20 0xFFFFFFFFFFFFFFFFFFFFFFFFFFFFFFFFFFFFFFFF DUP3 AND SWAP1 POP SWAP2 SWAP1 POP JUMP JUMPDEST PUSH0 PUSH2 0x1AA DUP3 PUSH2 0x181 JUMP JUMPDEST SWAP1 POP SWAP2 SWAP1 POP JUMP JUMPDEST PUSH2 0x1BA DUP2 PUSH2 0x1A0 JUMP JUMPDEST DUP2 EQ PUSH2 0x1C4 JUMPI PUSH0 DUP1 REVERT JUMPDEST POP JUMP JUMPDEST PUSH0 DUP2 CALLDATALOAD SWAP1 POP PUSH2 0x1D5 DUP2 PUSH2 0x1B1 JUMP JUMPDEST SWAP3 SWAP2 POP POP JUMP JUMPDEST PUSH0 DUP2 SWAP1 POP SWAP2 SWAP1 POP JUMP JUMPDEST PUSH2 0x1ED DUP2 PUSH2 0x1DB JUMP JUMPDEST DUP2 EQ PUSH2 0x1F7 JUMPI PUSH0 DUP1 REVERT JUMPDEST POP JUMP JUMPDEST PUSH0 DUP2 CALLDATALOAD SWAP1 POP PUSH2 0x208 DUP2 PUSH2 0x1E4 JUMP JUMPDEST SWAP3 SWAP2 POP POP JUMP JUMPDEST PUSH0 DUP1 PUSH0 PUSH1 0x60 DUP5 DUP7 SUB SLT ISZERO PUSH2 0x225 JUMPI PUSH2 0x224 PUSH2 0x17D JUMP JUMPDEST JUMPDEST PUSH0 PUSH2 0x232 DUP7 DUP3 DUP8 ADD PUSH2 0x1C7 JUMP JUMPDEST SWAP4 POP POP PUSH1 0x20 PUSH2 0x243 DUP7 DUP3 DUP8 ADD PUSH2 0x1C7 JUMP JUMPDEST SWAP3 POP POP PUSH1 0x40 PUSH2 0x254 DUP7 DUP3 DUP8 ADD PUSH2 0x1FA JUMP JUMPDEST SWAP2 POP POP SWAP3 POP SWAP3 POP SWAP3 JUMP JUMPDEST PUSH0 DUP3 DUP3 MSTORE PUSH1 0x20 DUP3 ADD SWAP1 POP SWAP3 SWAP2 POP POP JUMP JUMPDEST PUSH32 0x496E76616C696420726563697069656E74000000000000000000000000000000 PUSH0 DUP3 ADD MSTORE POP JUMP JUMPDEST PUSH0 PUSH2 0x2A2 PUSH1 0x11 DUP4 PUSH2 0x25E JUMP JUMPDEST SWAP2 POP PUSH2 0x2AD DUP3 PUSH2 0x26E JUMP JUMPDEST PUSH1 0x20 DUP3 ADD SWAP1 POP SWAP2 SWAP1 POP JUMP JUMPDEST PUSH0 PUSH1 0x20 DUP3 ADD SWAP1 POP DUP2 DUP2 SUB PUSH0 DUP4 ADD MSTORE PUSH2 0x2CF DUP2 PUSH2 0x296 JUMP JUMPDEST SWAP1 POP SWAP2 SWAP1 POP JUMP JUMPDEST PUSH2 0x2DF DUP2 PUSH2 0x1A0 JUMP JUMPDEST DUP3 MSTORE POP POP JUMP JUMPDEST PUSH2 0x2EE DUP2 PUSH2 0x1DB JUMP JUMPDEST DUP3 MSTORE POP POP JUMP JUMPDEST PUSH0 PUSH1 0x60 DUP3 ADD SWAP1 POP PUSH2 0x307 PUSH0 DUP4 ADD DUP7 PUSH2 0x2D6 JUMP JUMPDEST PUSH2 0x314 PUSH1 0x20 DUP4 ADD DUP6 PUSH2 0x2D6 JUMP JUMPDEST PUSH2 0x321 PUSH1 0x40 DUP4 ADD DUP5 PUSH2 0x2E5 JUMP JUMPDEST SWAP5 SWAP4 POP POP POP POP JUMP JUMPDEST PUSH0 DUP2 ISZERO ISZERO SWAP1 POP SWAP2 SWAP1 POP JUMP JUMPDEST PUSH2 0x33D DUP2 PUSH2 0x329 JUMP JUMPDEST DUP2 EQ PUSH2 0x347 JUMPI PUSH0 DUP1 REVERT JUMPDEST POP JUMP JUMPDEST PUSH0 DUP2 MLOAD SWAP1 POP PUSH2 0x358 DUP2 PUSH2 0x334 JUMP JUMPDEST SWAP3 SWAP2 POP POP JUMP JUMPDEST PUSH0 PUSH1 0x20 DUP3 DUP5 SUB SLT ISZERO PUSH2 0x373 JUMPI PUSH2 0x372 PUSH2 0x17D JUMP JUMPDEST JUMPDEST PUSH0 PUSH2 0x380 DUP5 DUP3 DUP6 ADD PUSH2 0x34A JUMP JUMPDEST SWAP2 POP POP SWAP3 SWAP2 POP POP JUMP JUMPDEST PUSH32 0x546F6B656E207472616E73666572206661696C65640000000000000000000000 PUSH0 DUP3 ADD MSTORE POP JUMP JUMPDEST PUSH0 PUSH2 0x3BD PUSH1 0x15 DUP4 PUSH2 0x25E JUMP JUMPDEST SWAP2 POP PUSH2 0x3C8 DUP3 PUSH2 0x389 JUMP JUMPDEST PUSH1 0x20 DUP3 ADD SWAP1 POP SWAP2 SWAP1 POP JUMP JUMPDEST PUSH0 PUSH1 0x20 DUP3 ADD SWAP1 POP DUP2 DUP2 SUB PUSH0 DUP4 ADD MSTORE PUSH2 0x3EA DUP2 PUSH2 0x3B1 JUMP JUMPDEST SWAP1 POP SWAP2 SWAP1 POP JUMP INVALID LOG2 PUSH5 0x6970667358 0x22 SLT KECCAK256 0xF9 0xD8 0xAB 0xC6 0xC8 INVALID 0xCF SWAP3 PUSH20 0x2D2429A65C3934429121E12506C34A8A3DCB419D MOD BASEFEE PUSH21 0x64736F6C6343000816003300000000000000000000 "
				},
				"gasEstimates": {
					"creation": {
						"codeDepositCost": "212600",
						"executionCost": "255",
						"totalCost": "212855"
					},
					"external": {
						"transferToken(address,address,uint256)": "infinite"
					}
				},
				"methodIdentifiers": {
					"transferToken(address,address,uint256)": "f5537ede"
				}
			},
			"storageLayout": {
				"storage": [],
				"types": null
			},
			"userdoc": {
				"kind": "user",
				"methods": {},
				"version": 1
			}
		}
	}
}